{
  "contractName": "OnlineMarketplace",
  "abi": [
    {
      "constant": true,
      "inputs": [],
      "name": "skuCount",
      "outputs": [
        {
          "name": "",
          "type": "uint256"
        }
      ],
      "payable": false,
      "stateMutability": "view",
      "type": "function"
    },
    {
      "constant": true,
      "inputs": [
        {
          "name": "",
          "type": "address"
        }
      ],
      "name": "users",
      "outputs": [
        {
          "name": "name",
          "type": "string"
        },
        {
          "name": "userstate",
          "type": "uint8"
        }
      ],
      "payable": false,
      "stateMutability": "view",
      "type": "function"
    },
    {
      "constant": true,
      "inputs": [
        {
          "name": "",
          "type": "uint256"
        }
      ],
      "name": "items",
      "outputs": [
        {
          "name": "name",
          "type": "string"
        },
        {
          "name": "sku",
          "type": "uint256"
        },
        {
          "name": "price",
          "type": "uint256"
        },
        {
          "name": "itemstate",
          "type": "uint8"
        },
        {
          "name": "seller",
          "type": "address"
        },
        {
          "name": "buyer",
          "type": "address"
        }
      ],
      "payable": false,
      "stateMutability": "view",
      "type": "function"
    },
    {
      "inputs": [],
      "payable": false,
      "stateMutability": "nonpayable",
      "type": "constructor"
    },
    {
      "anonymous": false,
      "inputs": [
        {
          "indexed": false,
          "name": "accountAddress",
          "type": "address"
        }
      ],
      "name": "Customer",
      "type": "event"
    },
    {
      "anonymous": false,
      "inputs": [
        {
          "indexed": false,
          "name": "accountAddress",
          "type": "address"
        }
      ],
      "name": "StoreOwner",
      "type": "event"
    },
    {
      "anonymous": false,
      "inputs": [
        {
          "indexed": false,
          "name": "accountAddress",
          "type": "address"
        }
      ],
      "name": "Admin",
      "type": "event"
    },
    {
      "anonymous": false,
      "inputs": [
        {
          "indexed": false,
          "name": "sku",
          "type": "uint256"
        }
      ],
      "name": "ForSale",
      "type": "event"
    },
    {
      "anonymous": false,
      "inputs": [
        {
          "indexed": false,
          "name": "sku",
          "type": "uint256"
        }
      ],
      "name": "Sold",
      "type": "event"
    },
    {
      "anonymous": false,
      "inputs": [
        {
          "indexed": false,
          "name": "sku",
          "type": "uint256"
        }
      ],
      "name": "Received",
      "type": "event"
    },
    {
      "constant": false,
      "inputs": [],
      "name": "toggleContractActive",
      "outputs": [],
      "payable": false,
      "stateMutability": "nonpayable",
      "type": "function"
    },
    {
      "constant": false,
      "inputs": [
        {
          "name": "_useraddress",
          "type": "address"
        },
        {
          "name": "_name",
          "type": "string"
        }
      ],
      "name": "registerCustomer",
      "outputs": [
        {
          "name": "",
          "type": "bool"
        }
      ],
      "payable": false,
      "stateMutability": "nonpayable",
      "type": "function"
    },
    {
      "constant": false,
      "inputs": [
        {
          "name": "_useraddress",
          "type": "address"
        },
        {
          "name": "_name",
          "type": "string"
        }
      ],
      "name": "registerStoreOwner",
      "outputs": [
        {
          "name": "",
          "type": "bool"
        }
      ],
      "payable": false,
      "stateMutability": "nonpayable",
      "type": "function"
    },
    {
      "constant": false,
      "inputs": [
        {
          "name": "_useraddress",
          "type": "address"
        },
        {
          "name": "_name",
          "type": "string"
        }
      ],
      "name": "registerAdmin",
      "outputs": [
        {
          "name": "",
          "type": "bool"
        }
      ],
      "payable": false,
      "stateMutability": "nonpayable",
      "type": "function"
    },
    {
      "constant": false,
      "inputs": [
        {
          "name": "_useraddress",
          "type": "address"
        },
        {
          "name": "_userstate",
          "type": "uint8"
        }
      ],
      "name": "updateUserState",
      "outputs": [
        {
          "name": "name",
          "type": "string"
        },
        {
          "name": "userstate",
          "type": "uint8"
        }
      ],
      "payable": false,
      "stateMutability": "nonpayable",
      "type": "function"
    },
    {
      "constant": false,
      "inputs": [
        {
          "name": "_name",
          "type": "string"
        },
        {
          "name": "_price",
          "type": "uint256"
        }
      ],
      "name": "addItem",
      "outputs": [
        {
          "name": "",
          "type": "uint256"
        }
      ],
      "payable": false,
      "stateMutability": "nonpayable",
      "type": "function"
    },
    {
      "constant": false,
      "inputs": [
        {
          "name": "_sku",
          "type": "uint256"
        },
        {
          "name": "_name",
          "type": "string"
        },
        {
          "name": "_price",
          "type": "uint256"
        }
      ],
      "name": "editItem",
      "outputs": [],
      "payable": false,
      "stateMutability": "nonpayable",
      "type": "function"
    },
    {
      "constant": false,
      "inputs": [
        {
          "name": "sku",
          "type": "uint256"
        }
      ],
      "name": "buyItem",
      "outputs": [],
      "payable": true,
      "stateMutability": "payable",
      "type": "function"
    },
    {
      "constant": true,
      "inputs": [
        {
          "name": "_sku",
          "type": "uint256"
        }
      ],
      "name": "fetchItem",
      "outputs": [
        {
          "name": "name",
          "type": "string"
        },
        {
          "name": "sku",
          "type": "uint256"
        },
        {
          "name": "price",
          "type": "uint256"
        },
        {
          "name": "itemstate",
          "type": "uint256"
        },
        {
          "name": "seller",
          "type": "address"
        },
        {
          "name": "buyer",
          "type": "address"
        }
      ],
      "payable": false,
      "stateMutability": "view",
      "type": "function"
    },
    {
      "constant": true,
      "inputs": [
        {
          "name": "_address",
          "type": "address"
        }
      ],
      "name": "fetchUser",
      "outputs": [
        {
          "name": "name",
          "type": "string"
        },
        {
          "name": "userstate",
          "type": "uint256"
        }
      ],
      "payable": false,
      "stateMutability": "view",
      "type": "function"
    }
  ],
  "bytecode": "0x60806040526000600260006101000a81548160ff0219169083151502179055503480156200002c57600080fd5b50336000806101000a81548173ffffffffffffffffffffffffffffffffffffffff021916908373ffffffffffffffffffffffffffffffffffffffff16021790555060408051908101604052806040805190810160405280600581526020017f4f776e65720000000000000000000000000000000000000000000000000000008152508152602001600280811115620000c057fe5b815250600460008060009054906101000a900473ffffffffffffffffffffffffffffffffffffffff1673ffffffffffffffffffffffffffffffffffffffff1673ffffffffffffffffffffffffffffffffffffffff1681526020019081526020016000206000820151816000019080519060200190620001419291906200017d565b5060208201518160010160006101000a81548160ff021916908360028111156200016757fe5b021790555090505060006001819055506200022c565b828054600181600116156101000203166002900490600052602060002090601f016020900481019282601f10620001c057805160ff1916838001178555620001f1565b82800160010185558215620001f1579182015b82811115620001f0578251825591602001919060010190620001d3565b5b50905062000200919062000204565b5090565b6200022991905b80821115620002255760008160009055506001016200020b565b5090565b90565b6122fb806200023c6000396000f3fe6080604052600436106100c5576000357c0100000000000000000000000000000000000000000000000000000000900463ffffffff1680631385d24c146100ca57806322702473146100e1578063312293611461010c57806362d6bbdf1461020c57806379c6a1b8146102f2578063a21a74b2146103f2578063a87430ba146104ce578063ad4b9cfb146105ad578063be6f0ea2146106dc578063bfb231d2146107ad578063db1970f4146108ea578063e2943c8d146109ea578063e7fb74c714610ad6575b600080fd5b3480156100d657600080fd5b506100df610b04565b005b3480156100ed57600080fd5b506100f6610c0c565b6040518082815260200191505060405180910390f35b34801561011857600080fd5b506101f26004803603604081101561012f57600080fd5b81019080803573ffffffffffffffffffffffffffffffffffffffff1690602001909291908035906020019064010000000081111561016c57600080fd5b82018360208201111561017e57600080fd5b803590602001918460018302840111640100000000831117156101a057600080fd5b91908080601f016020809104026020016040519081016040528093929190818152602001838380828437600081840152601f19601f820116905080830192505050505050509192919290505050610c12565b604051808215151515815260200191505060405180910390f35b34801561021857600080fd5b506102dc6004803603604081101561022f57600080fd5b810190808035906020019064010000000081111561024c57600080fd5b82018360208201111561025e57600080fd5b8035906020019184600183028401116401000000008311171561028057600080fd5b91908080601f016020809104026020016040519081016040528093929190818152602001838380828437600081840152601f19601f82011690508083019250505050505050919291929080359060200190929190505050610e91565b6040518082815260200191505060405180910390f35b3480156102fe57600080fd5b506103d86004803603604081101561031557600080fd5b81019080803573ffffffffffffffffffffffffffffffffffffffff1690602001909291908035906020019064010000000081111561035257600080fd5b82018360208201111561036457600080fd5b8035906020019184600183028401116401000000008311171561038657600080fd5b91908080601f016020809104026020016040519081016040528093929190818152602001838380828437600081840152601f19601f820116905080830192505050505050509192919290505050611152565b604051808215151515815260200191505060405180910390f35b3480156103fe57600080fd5b506104cc6004803603606081101561041557600080fd5b81019080803590602001909291908035906020019064010000000081111561043c57600080fd5b82018360208201111561044e57600080fd5b8035906020019184600183028401116401000000008311171561047057600080fd5b91908080601f016020809104026020016040519081016040528093929190818152602001838380828437600081840152601f19601f8201169050808301925050505050505091929192908035906020019092919050505061135c565b005b3480156104da57600080fd5b5061051d600480360360208110156104f157600080fd5b81019080803573ffffffffffffffffffffffffffffffffffffffff16906020019092919050505061149c565b604051808060200183600281111561053157fe5b60ff168152602001828103825284818151815260200191508051906020019080838360005b83811015610571578082015181840152602081019050610556565b50505050905090810190601f16801561059e5780820380516001836020036101000a031916815260200191505b50935050505060405180910390f35b3480156105b957600080fd5b506105e6600480360360208110156105d057600080fd5b8101908080359060200190929190505050611565565b60405180806020018781526020018681526020018581526020018473ffffffffffffffffffffffffffffffffffffffff1673ffffffffffffffffffffffffffffffffffffffff1681526020018373ffffffffffffffffffffffffffffffffffffffff1673ffffffffffffffffffffffffffffffffffffffff168152602001828103825288818151815260200191508051906020019080838360005b8381101561069c578082015181840152602081019050610681565b50505050905090810190601f1680156106c95780820380516001836020036101000a031916815260200191505b5097505050505050505060405180910390f35b3480156106e857600080fd5b5061072b600480360360208110156106ff57600080fd5b81019080803573ffffffffffffffffffffffffffffffffffffffff169060200190929190505050611710565b6040518080602001838152602001828103825284818151815260200191508051906020019080838360005b83811015610771578082015181840152602081019050610756565b50505050905090810190601f16801561079e5780820380516001836020036101000a031916815260200191505b50935050505060405180910390f35b3480156107b957600080fd5b506107e6600480360360208110156107d057600080fd5b8101908080359060200190929190505050611859565b604051808060200187815260200186815260200185600281111561080657fe5b60ff1681526020018473ffffffffffffffffffffffffffffffffffffffff1673ffffffffffffffffffffffffffffffffffffffff1681526020018373ffffffffffffffffffffffffffffffffffffffff1673ffffffffffffffffffffffffffffffffffffffff168152602001828103825288818151815260200191508051906020019080838360005b838110156108aa57808201518184015260208101905061088f565b50505050905090810190601f1680156108d75780820380516001836020036101000a031916815260200191505b5097505050505050505060405180910390f35b3480156108f657600080fd5b506109d06004803603604081101561090d57600080fd5b81019080803573ffffffffffffffffffffffffffffffffffffffff1690602001909291908035906020019064010000000081111561094a57600080fd5b82018360208201111561095c57600080fd5b8035906020019184600183028401116401000000008311171561097e57600080fd5b91908080601f016020809104026020016040519081016040528093929190818152602001838380828437600081840152601f19601f82011690508083019250505050505050919291929050505061197a565b604051808215151515815260200191505060405180910390f35b3480156109f657600080fd5b50610a4660048036036040811015610a0d57600080fd5b81019080803573ffffffffffffffffffffffffffffffffffffffff169060200190929190803560ff169060200190929190505050611b85565b6040518080602001836002811115610a5a57fe5b60ff168152602001828103825284818151815260200191508051906020019080838360005b83811015610a9a578082015181840152602081019050610a7f565b50505050905090810190601f168015610ac75780820380516001836020036101000a031916815260200191505b50935050505060405180910390f35b610b0260048036036020811015610aec57600080fd5b8101908080359060200190929190505050611e1b565b005b600280811115610b1057fe5b600460003373ffffffffffffffffffffffffffffffffffffffff1673ffffffffffffffffffffffffffffffffffffffff16815260200190815260200160002060010160009054906101000a900460ff166002811115610b6b57fe5b141515610be0576040517f08c379a00000000000000000000000000000000000000000000000000000000081526004018080602001828103825260108152602001807f43616c6c6572206e6f742041646d696e0000000000000000000000000000000081525060200191505060405180910390fd5b600260009054906101000a900460ff1615600260006101000a81548160ff021916908315150217905550565b60015481565b6000600280811115610c2057fe5b600460003373ffffffffffffffffffffffffffffffffffffffff1673ffffffffffffffffffffffffffffffffffffffff16815260200190815260200160002060010160009054906101000a900460ff166002811115610c7b57fe5b141515610cf0576040517f08c379a00000000000000000000000000000000000000000000000000000000081526004018080602001828103825260108152602001807f43616c6c6572206e6f742041646d696e0000000000000000000000000000000081525060200191505060405180910390fd5b600260009054906101000a900460ff161515610e8b57604080519081016040528083815260200160016002811115610d2457fe5b815250600460008573ffffffffffffffffffffffffffffffffffffffff1673ffffffffffffffffffffffffffffffffffffffff1681526020019081526020016000206000820151816000019080519060200190610d829291906121aa565b5060208201518160010160006101000a81548160ff02191690836002811115610da757fe5b02179055509050507f3ab5dcdb915dd2b3d571afcff3ec04eda92609d6d4ef7070853c8596a15e164483604051808273ffffffffffffffffffffffffffffffffffffffff1673ffffffffffffffffffffffffffffffffffffffff16815260200191505060405180910390a160016002811115610e1f57fe5b600460008573ffffffffffffffffffffffffffffffffffffffff1673ffffffffffffffffffffffffffffffffffffffff16815260200190815260200160002060010160009054906101000a900460ff166002811115610e7a57fe5b141515610e8657600080fd5b600190505b92915050565b600060016002811115610ea057fe5b600460003373ffffffffffffffffffffffffffffffffffffffff1673ffffffffffffffffffffffffffffffffffffffff16815260200190815260200160002060010160009054906101000a900460ff166002811115610efb57fe5b10151515610f71576040517f08c379a000000000000000000000000000000000000000000000000000000000815260040180806020018281038252601c8152602001807f43616c6c6572206e6f742053746f7265204f776e65722f41646d696e0000000081525060200191505060405180910390fd5b600260009054906101000a900460ff16151561114c5760c060405190810160405280848152602001600154815260200183815260200160006002811115610fb457fe5b81526020013373ffffffffffffffffffffffffffffffffffffffff168152602001600073ffffffffffffffffffffffffffffffffffffffff1681525060036000600154815260200190815260200160002060008201518160000190805190602001906110219291906121aa565b50602082015181600101556040820151816002015560608201518160030160006101000a81548160ff0219169083600281111561105a57fe5b021790555060808201518160030160016101000a81548173ffffffffffffffffffffffffffffffffffffffff021916908373ffffffffffffffffffffffffffffffffffffffff16021790555060a08201518160040160006101000a81548173ffffffffffffffffffffffffffffffffffffffff021916908373ffffffffffffffffffffffffffffffffffffffff1602179055509050507fa96ae0fc3224ebd79eebfe54bd130cc9cb94416cddd1f2386115e00b725324686001546040518082815260200191505060405180910390a161113e6001805461218990919063ffffffff16565b600181905550600180540390505b92915050565b600060028081111561116057fe5b600460003373ffffffffffffffffffffffffffffffffffffffff1673ffffffffffffffffffffffffffffffffffffffff16815260200190815260200160002060010160009054906101000a900460ff1660028111156111bb57fe5b141515611230576040517f08c379a00000000000000000000000000000000000000000000000000000000081526004018080602001828103825260108152602001807f43616c6c6572206e6f742041646d696e0000000000000000000000000000000081525060200191505060405180910390fd5b600260009054906101000a900460ff16151561135657604080519081016040528083815260200160028081111561126357fe5b815250600460008573ffffffffffffffffffffffffffffffffffffffff1673ffffffffffffffffffffffffffffffffffffffff16815260200190815260200160002060008201518160000190805190602001906112c19291906121aa565b5060208201518160010160006101000a81548160ff021916908360028111156112e657fe5b02179055509050507f33b005d053f740768cddf56d4aae11b8b1fb294e749565266b2f2b20e80e9cdf83604051808273ffffffffffffffffffffffffffffffffffffffff1673ffffffffffffffffffffffffffffffffffffffff16815260200191505060405180910390a1600190505b92915050565b6001600281111561136957fe5b600460003373ffffffffffffffffffffffffffffffffffffffff1673ffffffffffffffffffffffffffffffffffffffff16815260200190815260200160002060010160009054906101000a900460ff1660028111156113c457fe5b1015151561143a576040517f08c379a000000000000000000000000000000000000000000000000000000000815260040180806020018281038252601c8152602001807f43616c6c6572206e6f742053746f7265204f776e65722f41646d696e0000000081525060200191505060405180910390fd5b600260009054906101000a900460ff161515611497578160036000858152602001908152602001600020600001908051906020019061147a92919061222a565b508060036000858152602001908152602001600020600201819055505b505050565b6004602052806000526040600020600091509050806000018054600181600116156101000203166002900480601f0160208091040260200160405190810160405280929190818152602001828054600181600116156101000203166002900480156115485780601f1061151d57610100808354040283529160200191611548565b820191906000526020600020905b81548152906001019060200180831161152b57829003601f168201915b5050505050908060010160009054906101000a900460ff16905082565b60606000806000806000600360008881526020019081526020016000206000018054600181600116156101000203166002900480601f0160208091040260200160405190810160405280929190818152602001828054600181600116156101000203166002900480156116195780601f106115ee57610100808354040283529160200191611619565b820191906000526020600020905b8154815290600101906020018083116115fc57829003601f168201915b5050505050955060036000888152602001908152602001600020600101549450600360008881526020019081526020016000206002015493506003600088815260200190815260200160002060030160009054906101000a900460ff16600281111561168157fe5b92506003600088815260200190815260200160002060030160019054906101000a900473ffffffffffffffffffffffffffffffffffffffff1691506003600088815260200190815260200160002060040160009054906101000a900473ffffffffffffffffffffffffffffffffffffffff16905085858585858595509550955095509550955091939550919395565b60606000600460008473ffffffffffffffffffffffffffffffffffffffff1673ffffffffffffffffffffffffffffffffffffffff1681526020019081526020016000206000018054600181600116156101000203166002900480601f0160208091040260200160405190810160405280929190818152602001828054600181600116156101000203166002900480156117ea5780601f106117bf576101008083540402835291602001916117ea565b820191906000526020600020905b8154815290600101906020018083116117cd57829003601f168201915b50505050509150600460008473ffffffffffffffffffffffffffffffffffffffff1673ffffffffffffffffffffffffffffffffffffffff16815260200190815260200160002060010160009054906101000a900460ff16600281111561184c57fe5b9050818191509150915091565b6003602052806000526040600020600091509050806000018054600181600116156101000203166002900480601f0160208091040260200160405190810160405280929190818152602001828054600181600116156101000203166002900480156119055780601f106118da57610100808354040283529160200191611905565b820191906000526020600020905b8154815290600101906020018083116118e857829003601f168201915b5050505050908060010154908060020154908060030160009054906101000a900460ff16908060030160019054906101000a900473ffffffffffffffffffffffffffffffffffffffff16908060040160009054906101000a900473ffffffffffffffffffffffffffffffffffffffff16905086565b600060028081111561198857fe5b600460003373ffffffffffffffffffffffffffffffffffffffff1673ffffffffffffffffffffffffffffffffffffffff16815260200190815260200160002060010160009054906101000a900460ff1660028111156119e357fe5b141515611a58576040517f08c379a00000000000000000000000000000000000000000000000000000000081526004018080602001828103825260108152602001807f43616c6c6572206e6f742041646d696e0000000000000000000000000000000081525060200191505060405180910390fd5b600260009054906101000a900460ff161515611b7f57604080519081016040528083815260200160006002811115611a8c57fe5b815250600460008573ffffffffffffffffffffffffffffffffffffffff1673ffffffffffffffffffffffffffffffffffffffff1681526020019081526020016000206000820151816000019080519060200190611aea9291906121aa565b5060208201518160010160006101000a81548160ff02191690836002811115611b0f57fe5b02179055509050507f3894d0b3ab3a6e809eb80cc842fe6dd3bc4571b6aea1d6b094c2997b782a3c1083604051808273ffffffffffffffffffffffffffffffffffffffff1673ffffffffffffffffffffffffffffffffffffffff16815260200191505060405180910390a1600190505b92915050565b60606000600280811115611b9557fe5b600460003373ffffffffffffffffffffffffffffffffffffffff1673ffffffffffffffffffffffffffffffffffffffff16815260200190815260200160002060010160009054906101000a900460ff166002811115611bf057fe5b141515611c65576040517f08c379a00000000000000000000000000000000000000000000000000000000081526004018080602001828103825260108152602001807f43616c6c6572206e6f742041646d696e0000000000000000000000000000000081525060200191505060405180910390fd5b600260009054906101000a900460ff161515611e145782600460008673ffffffffffffffffffffffffffffffffffffffff1673ffffffffffffffffffffffffffffffffffffffff16815260200190815260200160002060010160006101000a81548160ff02191690836002811115611cd957fe5b0217905550600460008573ffffffffffffffffffffffffffffffffffffffff1673ffffffffffffffffffffffffffffffffffffffff1681526020019081526020016000206000018054600181600116156101000203166002900480601f016020809104026020016040519081016040528092919081815260200182805460018160011615610100020316600290048015611db45780601f10611d8957610100808354040283529160200191611db4565b820191906000526020600020905b815481529060010190602001808311611d9757829003601f168201915b50505050509150600460008573ffffffffffffffffffffffffffffffffffffffff1673ffffffffffffffffffffffffffffffffffffffff16815260200190815260200160002060010160009054906101000a900460ff1690508181915091505b9250929050565b8060006002811115611e2957fe5b600460003373ffffffffffffffffffffffffffffffffffffffff1673ffffffffffffffffffffffffffffffffffffffff16815260200190815260200160002060010160009054906101000a900460ff166002811115611e8457fe5b10151515611efa576040517f08c379a000000000000000000000000000000000000000000000000000000000815260040180806020018281038252601f8152602001807f43616c6c6572206e6f7420437573746f6d65722f4f776e65722f41646d696e0081525060200191505060405180910390fd5b8134803410151515611f74576040517f08c379a000000000000000000000000000000000000000000000000000000000815260040180806020018281038252600f8152602001807f4e6f74207061696420656e6f756768000000000000000000000000000000000081525060200191505060405180910390fd5b600260009054906101000a900460ff1615156120e2576003600085815260200190815260200160002060030160019054906101000a900473ffffffffffffffffffffffffffffffffffffffff1673ffffffffffffffffffffffffffffffffffffffff166108fc60036000878152602001908152602001600020600201549081150290604051600060405180830381858888f1935050505015801561201c573d6000803e3d6000fd5b50336003600086815260200190815260200160002060040160006101000a81548173ffffffffffffffffffffffffffffffffffffffff021916908373ffffffffffffffffffffffffffffffffffffffff16021790555060016003600086815260200190815260200160002060030160006101000a81548160ff021916908360028111156120a557fe5b02179055507f92f64ca637d023f354075a4be751b169c1a8a9ccb6d33cdd0cb3520543995727846040518082815260200191505060405180910390a15b50600060036000838152602001908152602001600020600201549050600081340390506003600084815260200190815260200160002060040160009054906101000a900473ffffffffffffffffffffffffffffffffffffffff1673ffffffffffffffffffffffffffffffffffffffff166108fc829081150290604051600060405180830381858888f19350505050158015612181573d6000803e3d6000fd5b505050505050565b60008082840190508381101515156121a057600080fd5b8091505092915050565b828054600181600116156101000203166002900490600052602060002090601f016020900481019282601f106121eb57805160ff1916838001178555612219565b82800160010185558215612219579182015b828111156122185782518255916020019190600101906121fd565b5b50905061222691906122aa565b5090565b828054600181600116156101000203166002900490600052602060002090601f016020900481019282601f1061226b57805160ff1916838001178555612299565b82800160010185558215612299579182015b8281111561229857825182559160200191906001019061227d565b5b5090506122a691906122aa565b5090565b6122cc91905b808211156122c85760008160009055506001016122b0565b5090565b9056fea165627a7a723058208a884cbe3969a55e0698d2247b50ba364ff098a6cd3e28a576c46a8abaab821f0029",
  "source": "pragma solidity ^0.5.0;\r\n\r\n///@title Online Marketplace \r\n///@author Jake McCarthy\r\n\r\nimport \"./SafeMath.sol\";\r\n\r\ncontract OnlineMarketplace {\r\n    \r\n    //using openzepplin safemath library\r\n    using SafeMath for uint256;\r\n    \r\n    //set owner\r\n    address private owner;\r\n    \r\n    //contract lvl vars \r\n    uint public skuCount;\r\n    bool private stopped = false;\r\n    \r\n    //mappings\r\n    //map owners to items\r\n    mapping (uint => Item) public items;\r\n    \r\n    mapping (address => User) public users;\r\n    \r\n    \r\n    //States for user and items\r\n    \r\n    enum userState {Customer, StoreOwner, Admin }\r\n    \r\n    enum itemState {ForSale, Sold, Received}\r\n    \r\n    //Structs for Users and itemState\r\n    \r\n    struct User {\r\n        string name;\r\n        userState userstate;\r\n    }\r\n    \r\n    struct Item {\r\n        string name;\r\n        uint256 sku;\r\n        uint256 price;\r\n        itemState itemstate;\r\n        address payable seller;\r\n        address payable buyer;\r\n    }\r\n    \r\n    //events\r\n    \r\n    //user\r\n    event Customer(address accountAddress);\r\n    event StoreOwner(address accountAddress);\r\n    event Admin(address accountAddress);\r\n    \r\n    //item\r\n    event ForSale(uint sku);\r\n    event Sold(uint sku);\r\n    event Received(uint sku);\r\n    \r\n    \r\n    //modifiers\r\n    \r\n    //user access modifiers\r\n    modifier isCustomer(){\r\n        require(users[msg.sender].userstate >= userState.Customer, \"Caller not Customer/Owner/Admin\" );\r\n    _;    \r\n    }\r\n    \r\n    modifier isStoreOwner(){\r\n        require(users[msg.sender].userstate >= userState.StoreOwner, \"Caller not Store Owner/Admin\" );\r\n    _;    \r\n    }\r\n    \r\n    modifier isAdmin(){\r\n        require(users[msg.sender].userstate == userState.Admin, \"Caller not Admin\" );\r\n    _;    \r\n    }\r\n    \r\n    \r\n    //item state\r\n    modifier forSale(uint sku){\r\n    \r\n    _;\r\n    }\r\n    \r\n    modifier sold(uint sku){\r\n    \r\n    _;\r\n    }\r\n    \r\n    \r\n    //payment \r\n    modifier paidEnough(uint _price){\r\n     require(msg.value >= _price, \"Not paid enough\");\r\n      _;\r\n      \r\n  }\r\n  \r\n    modifier checkValue(uint _sku) {\r\n    //refund them after pay for item (why it is before, _ checks for logic before func)\r\n    _;\r\n    uint _price = items[_sku].price;\r\n    uint amountToRefund = msg.value - _price;\r\n    items[_sku].buyer.transfer(amountToRefund);\r\n  }\r\n  \r\n  //circuit breaker modifiers\r\n  modifier stopInEmergency {if (!stopped) _;}\r\n  modifier onlyInEmergency {if (stopped) _;}\r\n  \r\n  //circuit breaker function\r\n  function toggleContractActive() isAdmin public {\r\n    // You can add an additional modifier that restricts stopping a contract to be based on another action, such as a vote of users\r\n    stopped = !stopped;\r\n}\r\n    \r\n    //constructor\r\n    constructor() public {\r\n        owner = msg.sender;\r\n        users[owner] = User({name: \"Owner\", userstate: userState.Admin});\r\n        skuCount = 0;\r\n    }\r\n    \r\n    \r\n\r\n    ///@notice register a user for admins only\r\n    ///@dev use to be registerUser funct. broken up into 3 funct for testing purposes \r\n    ///@param _useraddress - address of user to register \r\n    ///@param _name - name of user to register\r\n    ///@param _userstate - state of user e.g access permissions(admin, store owner, customer)\r\n    ///@return true if successful registration, false otherwise\r\n    function registerCustomer(address _useraddress,string memory _name) public isAdmin() stopInEmergency returns(bool) {\r\n        users[_useraddress] = User({name: _name, userstate: userState.Customer});\r\n        emit Customer(_useraddress);\r\n        return true;\r\n    }\r\n\r\n    ///@notice register a user for admins only\r\n    ///@dev\r\n    ///@param _useraddress - address of user to register \r\n    ///@param _name - name of user to register\r\n    ///@param _userstate - state of user e.g access permissions(admin, store owner, customer)\r\n    ///@return true if successful registration, false otherwise\r\n    function registerStoreOwner(address _useraddress,string memory _name) public isAdmin() stopInEmergency returns(bool) {\r\n        users[_useraddress] = User({name: _name, userstate: userState.StoreOwner});\r\n        emit StoreOwner(_useraddress);\r\n        require(users[_useraddress].userstate == userState.StoreOwner);\r\n        return true;\r\n    }\r\n\r\n    ///@notice register a user for admins only\r\n    ///@dev\r\n    ///@param _useraddress - address of user to register \r\n    ///@param _name - name of user to register\r\n    ///@param _userstate - state of user e.g access permissions(admin, store owner, customer)\r\n    ///@return true if successful registration, false otherwise\r\n    function registerAdmin(address _useraddress,string memory _name) public isAdmin() stopInEmergency returns(bool) {\r\n        users[_useraddress] = User({name: _name, userstate: userState.Admin});\r\n        emit Admin(_useraddress);\r\n        return true;\r\n    }\r\n    \r\n    ///@notice update a users permissions for admins only\r\n    ///@dev\r\n    ///@param _useraddress - address of user to update state \r\n    ///@param _userstate - state of user e.g access permissions(admin, store owner, customer)\r\n    ///@return \r\n    function updateUserState(address _useraddress, userState _userstate) public isAdmin() stopInEmergency returns ( string memory name, userState userstate) {\r\n        users[_useraddress].userstate = _userstate;\r\n        name = users[_useraddress].name;\r\n        userstate= users[_useraddress].userstate;\r\n        return (name, userstate);\r\n    }\r\n    \r\n    ///@notice add a new item to users store\r\n    ///@dev demonstrates use of external library using add function to add to skuCount\r\n    ///@param name - name of item to be sold\r\n    ///@param price - price of item to be sold\r\n    ///@return true if successfully added item, false otherwise\r\n    function addItem(string memory _name, uint _price) public isStoreOwner() stopInEmergency returns(uint) {\r\n    items[skuCount] = Item({name: _name, sku: skuCount, price: _price, itemstate: itemState.ForSale, seller: msg.sender, buyer: address(0)});\r\n    emit ForSale(skuCount);\r\n    skuCount = skuCount.add(1);\r\n    return skuCount-1;\r\n  }\r\n  \r\n    ///@notice add a new item to users store\r\n    ///@dev\r\n    ///@param name - name of item to be sold\r\n    ///@param price - price of item to be sold\r\n    ///@return true if successfully added item, false otherwise\r\n    function editItem(uint _sku, string memory _name, uint _price) public isStoreOwner() stopInEmergency {\r\n        items[_sku].name = _name;\r\n        items[_sku].price = _price;\r\n    }\r\n    \r\n    ///@notice add a new item to users store\r\n    ///@dev\r\n    ///@param name - name of item to be sold\r\n    ///@param price - price of item to be sold\r\n    ///@return true if successfully added item, false otherwise\r\n  function buyItem(uint sku)\r\n    public\r\n    payable\r\n    forSale(sku)\r\n    isCustomer()\r\n    checkValue(sku)\r\n    paidEnough(msg.value)\r\n    stopInEmergency\r\n  {\r\n    items[sku].seller.transfer(items[sku].price);\r\n    items[sku].buyer = msg.sender;\r\n    items[sku].itemstate = itemState.Sold;\r\n    emit Sold(sku);  \r\n  }\r\n\r\n  /* We have these functions completed so we can run tests, just ignore it :) REMOVE WHEN TEST */\r\n  function fetchItem(uint _sku) public view returns (string memory name, uint sku, uint price, uint itemstate, address seller, address buyer) {\r\n    name = items[_sku].name;\r\n    sku = items[_sku].sku;\r\n    price = items[_sku].price;\r\n    itemstate = uint(items[_sku].itemstate);\r\n    seller = items[_sku].seller;\r\n    buyer = items[_sku].buyer;\r\n    return (name, sku, price, itemstate, seller, buyer);\r\n  }\r\n\r\n  /* We have these functions completed so we can run tests, just ignore it :) REMOVE WHEN TEST */\r\n  function fetchUser(address _address) public view returns (string memory name, uint userstate) {\r\n    name = users[_address].name;\r\n    userstate = uint(users[_address].userstate);\r\n    return (name, userstate);\r\n  }\r\n\r\n\r\n    ///@notice delete contract\r\n    ///@dev mortal design pattern\r\nfunction kill() private isAdmin{\r\n    if (msg.sender == owner) selfdestruct(msg.sender);\r\n  }\r\n    \r\n    \r\n}\r\n",
  "sourcePath": "C:/Users/jbmccarthy/final-project-Jakebmccarthy/contracts/onlineMarketplace.sol",
  "compiler": {
    "name": "solc",
    "version": "0.5.0+commit.1d4f565a.Emscripten.clang"
  },
  "schemaVersion": "3.0.1",
  "updatedAt": "2019-01-26T19:47:22.310Z",
  "devdoc": {
    "methods": {
      "addItem(string,uint256)": {
        "return": "true if successfully added item, false otherwise"
      },
      "buyItem(uint256)": {
        "return": "true if successfully added item, false otherwise"
      },
      "editItem(uint256,string,uint256)": {
        "return": "true if successfully added item, false otherwise"
      },
      "registerAdmin(address,string)": {
        "return": "true if successful registration, false otherwise"
      },
      "registerCustomer(address,string)": {
        "return": "true if successful registration, false otherwise"
      },
      "registerStoreOwner(address,string)": {
        "return": "true if successful registration, false otherwise"
      }
    }
  },
  "userdoc": {
    "methods": {}
  }
}